{
  "_format": "hh-sol-artifact-1",
  "contractName": "EntryPortal",
  "sourceName": "contracts/EntryContract.sol",
  "abi": [
    {
      "inputs": [],
      "stateMutability": "payable",
      "type": "constructor"
    },
    {
      "anonymous": false,
      "inputs": [
        {
          "indexed": true,
          "internalType": "address",
          "name": "from",
          "type": "address"
        },
        {
          "indexed": false,
          "internalType": "uint256",
          "name": "timestamp",
          "type": "uint256"
        },
        {
          "indexed": false,
          "internalType": "string",
          "name": "message",
          "type": "string"
        }
      ],
      "name": "NewEntry",
      "type": "event"
    },
    {
      "anonymous": false,
      "inputs": [
        {
          "indexed": true,
          "internalType": "address",
          "name": "from",
          "type": "address"
        }
      ],
      "name": "Winner",
      "type": "event"
    },
    {
      "inputs": [
        {
          "internalType": "string",
          "name": "_message",
          "type": "string"
        }
      ],
      "name": "enter",
      "outputs": [],
      "stateMutability": "nonpayable",
      "type": "function"
    },
    {
      "inputs": [],
      "name": "getAllEntries",
      "outputs": [
        {
          "components": [
            {
              "internalType": "address",
              "name": "person",
              "type": "address"
            },
            {
              "internalType": "string",
              "name": "message",
              "type": "string"
            },
            {
              "internalType": "uint256",
              "name": "timestamp",
              "type": "uint256"
            }
          ],
          "internalType": "struct EntryPortal.Entry[]",
          "name": "",
          "type": "tuple[]"
        }
      ],
      "stateMutability": "view",
      "type": "function"
    },
    {
      "inputs": [],
      "name": "getEntries",
      "outputs": [
        {
          "internalType": "uint256",
          "name": "",
          "type": "uint256"
        }
      ],
      "stateMutability": "view",
      "type": "function"
    },
    {
      "inputs": [
        {
          "internalType": "address",
          "name": "",
          "type": "address"
        }
      ],
      "name": "lastUser",
      "outputs": [
        {
          "internalType": "uint256",
          "name": "",
          "type": "uint256"
        }
      ],
      "stateMutability": "view",
      "type": "function"
    }
  ],
  "bytecode": "0x60806040526200004f6040518060400160405280601381526020017f696e2074686520636f6e7374727563746f7221000000000000000000000000008152506200007760201b6200068c1760201c565b606444426200005f9190620001c4565b6200006b919062000261565b60018190555062000308565b62000117816040516024016200008e919062000184565b6040516020818303038152906040527f41304fac000000000000000000000000000000000000000000000000000000007bffffffffffffffffffffffffffffffffffffffffffffffffffffffff19166020820180517bffffffffffffffffffffffffffffffffffffffffffffffffffffffff83818316178352505050506200011a60201b60201c565b50565b60008151905060006a636f6e736f6c652e6c6f679050602083016000808483855afa5050505050565b60006200015082620001a8565b6200015c8185620001b3565b93506200016e8185602086016200022b565b6200017981620002f7565b840191505092915050565b60006020820190508181036000830152620001a0818462000143565b905092915050565b600081519050919050565b600082825260208201905092915050565b6000620001d18262000221565b9150620001de8362000221565b9250827fffffffffffffffffffffffffffffffffffffffffffffffffffffffffffffffff0382111562000216576200021562000299565b5b828201905092915050565b6000819050919050565b60005b838110156200024b5780820151818401526020810190506200022e565b838111156200025b576000848401525b50505050565b60006200026e8262000221565b91506200027b8362000221565b9250826200028e576200028d620002c8565b5b828206905092915050565b7f4e487b7100000000000000000000000000000000000000000000000000000000600052601160045260246000fd5b7f4e487b7100000000000000000000000000000000000000000000000000000000600052601260045260246000fd5b6000601f19601f8301169050919050565b6111b080620003186000396000f3fe608060405234801561001057600080fd5b506004361061004c5760003560e01c806317be85c3146100515780634a0364e81461006f5780639d4ff8ad1461008d578063cbe7ee02146100a9575b600080fd5b6100596100d9565b6040516100669190610d52565b60405180910390f35b610077610124565b6040516100849190610c4e565b60405180910390f35b6100a760048036038101906100a291906109e5565b610275565b005b6100c360048036038101906100be91906109bc565b610674565b6040516100d09190610d52565b60405180910390f35b600061011c6040518060400160405280601881526020017f596f75206861766520257320746f74616c207761766573210000000000000000815250600054610725565b600054905090565b60606002805480602002602001604051908101604052809291908181526020016000905b8282101561026c57838290600052602060002090600302016040518060600160405290816000820160009054906101000a900473ffffffffffffffffffffffffffffffffffffffff1673ffffffffffffffffffffffffffffffffffffffff1673ffffffffffffffffffffffffffffffffffffffff1681526020016001820180546101d190610f38565b80601f01602080910402602001604051908101604052809291908181526020018280546101fd90610f38565b801561024a5780601f1061021f5761010080835404028352916020019161024a565b820191906000526020600020905b81548152906001019060200180831161022d57829003601f168201915b5050505050815260200160028201548152505081526020019060010190610148565b50505050905090565b42601e600360003373ffffffffffffffffffffffffffffffffffffffff1673ffffffffffffffffffffffffffffffffffffffff168152602001908152602001600020546102c29190610e64565b10610302576040517f08c379a00000000000000000000000000000000000000000000000000000000081526004016102f990610d32565b60405180910390fd5b42600360003373ffffffffffffffffffffffffffffffffffffffff1673ffffffffffffffffffffffffffffffffffffffff1681526020019081526020016000208190555061035c60016000546107c190919063ffffffff16565b6000819055506103a16040518060400160405280601081526020017f2573206861732061707065617265642100000000000000000000000000000000815250336107d7565b600260405180606001604052803373ffffffffffffffffffffffffffffffffffffffff16815260200183815260200142815250908060018154018082558091505060019003906000526020600020906003020160009091909190915060008201518160000160006101000a81548173ffffffffffffffffffffffffffffffffffffffff021916908373ffffffffffffffffffffffffffffffffffffffff160217905550602082015181600101908051906020019061046092919061089c565b506040820151816002015550506064600154424461047e9190610e64565b6104889190610e64565b6104929190610f9b565b600181905550603260015411610621576104e16040518060400160405280600781526020017f257320776f6e2100000000000000000000000000000000000000000000000000815250336107d7565b3373ffffffffffffffffffffffffffffffffffffffff167f745c90b656b4aafe296c8ca35aeacfe56cb96c90e1d320e5da643fff1051b6c060405160405180910390a26000655af3107a4000905047811115610572576040517f08c379a000000000000000000000000000000000000000000000000000000000815260040161056990610cf2565b60405180910390fd5b60003373ffffffffffffffffffffffffffffffffffffffff168260405161059890610c39565b60006040518083038185875af1925050503d80600081146105d5576040519150601f19603f3d011682016040523d82523d6000602084013e6105da565b606091505b505090508061061e576040517f08c379a000000000000000000000000000000000000000000000000000000000815260040161061590610d12565b60405180910390fd5b50505b3373ffffffffffffffffffffffffffffffffffffffff167fda6c2cc892cd6a6d64ab41d7b8df946b985108419adcc023890aaf052012d0d34283604051610669929190610d6d565b60405180910390a250565b60036020528060005260406000206000915090505481565b610722816040516024016106a09190610c70565b6040516020818303038152906040527f41304fac000000000000000000000000000000000000000000000000000000007bffffffffffffffffffffffffffffffffffffffffffffffffffffffff19166020820180517bffffffffffffffffffffffffffffffffffffffffffffffffffffffff8381831617835250505050610873565b50565b6107bd828260405160240161073b929190610cc2565b6040516020818303038152906040527f9710a9d0000000000000000000000000000000000000000000000000000000007bffffffffffffffffffffffffffffffffffffffffffffffffffffffff19166020820180517bffffffffffffffffffffffffffffffffffffffffffffffffffffffff8381831617835250505050610873565b5050565b600081836107cf9190610e64565b905092915050565b61086f82826040516024016107ed929190610c92565b6040516020818303038152906040527f319af333000000000000000000000000000000000000000000000000000000007bffffffffffffffffffffffffffffffffffffffffffffffffffffffff19166020820180517bffffffffffffffffffffffffffffffffffffffffffffffffffffffff8381831617835250505050610873565b5050565b60008151905060006a636f6e736f6c652e6c6f679050602083016000808483855afa5050505050565b8280546108a890610f38565b90600052602060002090601f0160209004810192826108ca5760008555610911565b82601f106108e357805160ff1916838001178555610911565b82800160010185558215610911579182015b828111156109105782518255916020019190600101906108f5565b5b50905061091e9190610922565b5090565b5b8082111561093b576000816000905550600101610923565b5090565b600061095261094d84610dc2565b610d9d565b90508281526020810184848401111561096a57600080fd5b610975848285610ef6565b509392505050565b60008135905061098c81611163565b92915050565b600082601f8301126109a357600080fd5b81356109b384826020860161093f565b91505092915050565b6000602082840312156109ce57600080fd5b60006109dc8482850161097d565b91505092915050565b6000602082840312156109f757600080fd5b600082013567ffffffffffffffff811115610a1157600080fd5b610a1d84828501610992565b91505092915050565b6000610a328383610bcb565b905092915050565b610a4381610eba565b82525050565b610a5281610eba565b82525050565b6000610a6382610e03565b610a6d8185610e26565b935083602082028501610a7f85610df3565b8060005b85811015610abb5784840389528151610a9c8582610a26565b9450610aa783610e19565b925060208a01995050600181019050610a83565b50829750879550505050505092915050565b6000610ad882610e0e565b610ae28185610e42565b9350610af2818560208601610f05565b610afb81611088565b840191505092915050565b6000610b1182610e0e565b610b1b8185610e53565b9350610b2b818560208601610f05565b610b3481611088565b840191505092915050565b6000610b4c603483610e53565b9150610b5782611099565b604082019050919050565b6000610b6f602783610e53565b9150610b7a826110e8565b604082019050919050565b6000610b92600883610e53565b9150610b9d82611137565b602082019050919050565b6000610bb5600083610e37565b9150610bc082611160565b600082019050919050565b6000606083016000830151610be36000860182610a3a565b5060208301518482036020860152610bfb8282610acd565b9150506040830151610c106040860182610c1b565b508091505092915050565b610c2481610eec565b82525050565b610c3381610eec565b82525050565b6000610c4482610ba8565b9150819050919050565b60006020820190508181036000830152610c688184610a58565b905092915050565b60006020820190508181036000830152610c8a8184610b06565b905092915050565b60006040820190508181036000830152610cac8185610b06565b9050610cbb6020830184610a49565b9392505050565b60006040820190508181036000830152610cdc8185610b06565b9050610ceb6020830184610c2a565b9392505050565b60006020820190508181036000830152610d0b81610b3f565b9050919050565b60006020820190508181036000830152610d2b81610b62565b9050919050565b60006020820190508181036000830152610d4b81610b85565b9050919050565b6000602082019050610d676000830184610c2a565b92915050565b6000604082019050610d826000830185610c2a565b8181036020830152610d948184610b06565b90509392505050565b6000610da7610db8565b9050610db38282610f6a565b919050565b6000604051905090565b600067ffffffffffffffff821115610ddd57610ddc611059565b5b610de682611088565b9050602081019050919050565b6000819050602082019050919050565b600081519050919050565b600081519050919050565b6000602082019050919050565b600082825260208201905092915050565b600081905092915050565b600082825260208201905092915050565b600082825260208201905092915050565b6000610e6f82610eec565b9150610e7a83610eec565b9250827fffffffffffffffffffffffffffffffffffffffffffffffffffffffffffffffff03821115610eaf57610eae610fcc565b5b828201905092915050565b6000610ec582610ecc565b9050919050565b600073ffffffffffffffffffffffffffffffffffffffff82169050919050565b6000819050919050565b82818337600083830152505050565b60005b83811015610f23578082015181840152602081019050610f08565b83811115610f32576000848401525b50505050565b60006002820490506001821680610f5057607f821691505b60208210811415610f6457610f6361102a565b5b50919050565b610f7382611088565b810181811067ffffffffffffffff82111715610f9257610f91611059565b5b80604052505050565b6000610fa682610eec565b9150610fb183610eec565b925082610fc157610fc0610ffb565b5b828206905092915050565b7f4e487b7100000000000000000000000000000000000000000000000000000000600052601160045260246000fd5b7f4e487b7100000000000000000000000000000000000000000000000000000000600052601260045260246000fd5b7f4e487b7100000000000000000000000000000000000000000000000000000000600052602260045260246000fd5b7f4e487b7100000000000000000000000000000000000000000000000000000000600052604160045260246000fd5b6000601f19601f8301169050919050565b7f547279696e6720746f207769746864726177206d6f7265206d6f6e657920746860008201527f616e2074686520636f6e7472616374206861732e000000000000000000000000602082015250565b7f4661696c656420746f207769746864726177206d6f6e65792066726f6d20636f60008201527f6e74726163742e00000000000000000000000000000000000000000000000000602082015250565b7f5761697420333073000000000000000000000000000000000000000000000000600082015250565b50565b61116c81610eba565b811461117757600080fd5b5056fea264697066735822122088d8c25fa62769b80c7633189ba0bbe8e32fed61d6b7c0f67d1c6349e7649a3d64736f6c63430008040033",
  "linkReferences": {},
  "deployedLinkReferences": {}
}